{
  "contractName": "Admin",
  "abi": [
    {
      "inputs": [],
      "stateMutability": "nonpayable",
      "type": "constructor"
    },
    {
      "anonymous": false,
      "inputs": [
        {
          "indexed": true,
          "internalType": "address",
          "name": "previousOwner",
          "type": "address"
        },
        {
          "indexed": true,
          "internalType": "address",
          "name": "newOwner",
          "type": "address"
        }
      ],
      "name": "OwnershipTransferred",
      "type": "event"
    },
    {
      "inputs": [],
      "name": "owner",
      "outputs": [
        {
          "internalType": "address",
          "name": "",
          "type": "address"
        }
      ],
      "stateMutability": "view",
      "type": "function"
    },
    {
      "inputs": [],
      "name": "renounceOwnership",
      "outputs": [],
      "stateMutability": "nonpayable",
      "type": "function"
    },
    {
      "inputs": [
        {
          "internalType": "address",
          "name": "newOwner",
          "type": "address"
        }
      ],
      "name": "transferOwnership",
      "outputs": [],
      "stateMutability": "nonpayable",
      "type": "function"
    },
    {
      "inputs": [
        {
          "internalType": "uint256",
          "name": "amount",
          "type": "uint256"
        }
      ],
      "name": "adminWithdraw",
      "outputs": [],
      "stateMutability": "nonpayable",
      "type": "function"
    }
  ],
  "bytecode": "0x608060405234801561001057600080fd5b5060006100216100c460201b60201c565b9050806000806101000a81548173ffffffffffffffffffffffffffffffffffffffff021916908373ffffffffffffffffffffffffffffffffffffffff1602179055508073ffffffffffffffffffffffffffffffffffffffff16600073ffffffffffffffffffffffffffffffffffffffff167f8be0079c531659141344cd1fd0a4f28419497f9722a3daafe3b4186f6b6457e060405160405180910390a3506100cc565b600033905090565b6108ef806100db6000396000f3fe608060405234801561001057600080fd5b506004361061004c5760003560e01c8063715018a6146100515780637c5b4a371461005b5780638da5cb5b14610077578063f2fde38b14610095575b600080fd5b6100596100b1565b005b610075600480360381019061007091906105a9565b6101eb565b005b61007f610288565b60405161008c91906106a5565b60405180910390f35b6100af60048036038101906100aa9190610580565b6102b1565b005b6100b961045a565b73ffffffffffffffffffffffffffffffffffffffff166100d7610288565b73ffffffffffffffffffffffffffffffffffffffff161461012d576040517f08c379a000000000000000000000000000000000000000000000000000000000815260040161012490610720565b60405180910390fd5b600073ffffffffffffffffffffffffffffffffffffffff1660008054906101000a900473ffffffffffffffffffffffffffffffffffffffff1673ffffffffffffffffffffffffffffffffffffffff167f8be0079c531659141344cd1fd0a4f28419497f9722a3daafe3b4186f6b6457e060405160405180910390a360008060006101000a81548173ffffffffffffffffffffffffffffffffffffffff021916908373ffffffffffffffffffffffffffffffffffffffff160217905550565b6101f361045a565b73ffffffffffffffffffffffffffffffffffffffff16610211610288565b73ffffffffffffffffffffffffffffffffffffffff1614610267576040517f08c379a000000000000000000000000000000000000000000000000000000000815260040161025e90610720565b60405180910390fd5b4781111561027457600080fd5b61028561027f610288565b82610462565b50565b60008060009054906101000a900473ffffffffffffffffffffffffffffffffffffffff16905090565b6102b961045a565b73ffffffffffffffffffffffffffffffffffffffff166102d7610288565b73ffffffffffffffffffffffffffffffffffffffff161461032d576040517f08c379a000000000000000000000000000000000000000000000000000000000815260040161032490610720565b60405180910390fd5b600073ffffffffffffffffffffffffffffffffffffffff168173ffffffffffffffffffffffffffffffffffffffff16141561039d576040517f08c379a0000000000000000000000000000000000000000000000000000000008152600401610394906106c0565b60405180910390fd5b8073ffffffffffffffffffffffffffffffffffffffff1660008054906101000a900473ffffffffffffffffffffffffffffffffffffffff1673ffffffffffffffffffffffffffffffffffffffff167f8be0079c531659141344cd1fd0a4f28419497f9722a3daafe3b4186f6b6457e060405160405180910390a3806000806101000a81548173ffffffffffffffffffffffffffffffffffffffff021916908373ffffffffffffffffffffffffffffffffffffffff16021790555050565b600033905090565b804710156104a5576040517f08c379a000000000000000000000000000000000000000000000000000000000815260040161049c90610700565b60405180910390fd5b60008273ffffffffffffffffffffffffffffffffffffffff16826040516104cb90610690565b60006040518083038185875af1925050503d8060008114610508576040519150601f19603f3d011682016040523d82523d6000602084013e61050d565b606091505b5050905080610551576040517f08c379a0000000000000000000000000000000000000000000000000000000008152600401610548906106e0565b60405180910390fd5b505050565b6000813590506105658161088b565b92915050565b60008135905061057a816108a2565b92915050565b60006020828403121561059257600080fd5b60006105a084828501610556565b91505092915050565b6000602082840312156105bb57600080fd5b60006105c98482850161056b565b91505092915050565b6105db8161075c565b82525050565b60006105ee60268361074b565b91506105f982610798565b604082019050919050565b6000610611603a8361074b565b915061061c826107e7565b604082019050919050565b6000610634601d8361074b565b915061063f82610836565b602082019050919050565b600061065760208361074b565b91506106628261085f565b602082019050919050565b600061067a600083610740565b915061068582610888565b600082019050919050565b600061069b8261066d565b9150819050919050565b60006020820190506106ba60008301846105d2565b92915050565b600060208201905081810360008301526106d9816105e1565b9050919050565b600060208201905081810360008301526106f981610604565b9050919050565b6000602082019050818103600083015261071981610627565b9050919050565b600060208201905081810360008301526107398161064a565b9050919050565b600081905092915050565b600082825260208201905092915050565b60006107678261076e565b9050919050565b600073ffffffffffffffffffffffffffffffffffffffff82169050919050565b6000819050919050565b7f4f776e61626c653a206e6577206f776e657220697320746865207a65726f206160008201527f6464726573730000000000000000000000000000000000000000000000000000602082015250565b7f416464726573733a20756e61626c6520746f2073656e642076616c75652c207260008201527f6563697069656e74206d61792068617665207265766572746564000000000000602082015250565b7f416464726573733a20696e73756666696369656e742062616c616e6365000000600082015250565b7f4f776e61626c653a2063616c6c6572206973206e6f7420746865206f776e6572600082015250565b50565b6108948161075c565b811461089f57600080fd5b50565b6108ab8161078e565b81146108b657600080fd5b5056fea26469706673582212207f92498dbe5d1e1da96e347da876e05876f586554fc456901cc0d2489e2b5faf64736f6c63430008040033",
  "immutableReferences": {},
  "source": "// SPDX-License-Identifier: MIT\r\n// Made by Chance Vodnoy - 6/5/2021\r\npragma solidity ^0.8.4;\r\n\r\nimport \"../../node_modules/@openzeppelin/contracts/access/Ownable.sol\";\r\nimport \"../../node_modules/@openzeppelin/contracts/utils/Address.sol\";\r\n\r\n// Admin of a contract\r\ncontract Admin is Ownable {\r\n    // External libraries\r\n    using Address for address;\r\n\r\n    // Calls ownable constructor\r\n    constructor () Ownable() {}\r\n\r\n    // Withdraws funds from the contract\r\n    function adminWithdraw(uint amount) public onlyOwner {\r\n        require(amount <= address(this).balance);\r\n        Address.sendValue(payable(owner()), amount);\r\n    }\r\n}",
  "sourcePath": "C:\\Users\\chanc\\Documents\\Projects\\DAPP\\HigherLower\\smart_contracts\\contracts\\helpers\\Admin.sol",
  "compiler": {
    "name": "solc",
    "version": "0.8.4+commit.c7e474f2.Emscripten.clang"
  },
  "schemaVersion": "3.4.1",
  "updatedAt": "2021-06-13T07:06:59.967Z",
  "devdoc": {
    "kind": "dev",
    "methods": {
      "owner()": {
        "details": "Returns the address of the current owner."
      },
      "renounceOwnership()": {
        "details": "Leaves the contract without owner. It will not be possible to call `onlyOwner` functions anymore. Can only be called by the current owner. NOTE: Renouncing ownership will leave the contract without an owner, thereby removing any functionality that is only available to the owner."
      },
      "transferOwnership(address)": {
        "details": "Transfers ownership of the contract to a new account (`newOwner`). Can only be called by the current owner."
      }
    },
    "version": 1
  },
  "userdoc": {
    "kind": "user",
    "methods": {},
    "version": 1
  }
}