{
  "contractName": "HigherLower",
  "abi": [
    {
      "inputs": [],
      "stateMutability": "nonpayable",
      "type": "constructor"
    },
    {
      "inputs": [
        {
          "internalType": "uint256",
          "name": "time",
          "type": "uint256"
        }
      ],
      "name": "TooEarly",
      "type": "error"
    },
    {
      "inputs": [
        {
          "internalType": "uint256",
          "name": "time",
          "type": "uint256"
        }
      ],
      "name": "TooLate",
      "type": "error"
    },
    {
      "anonymous": false,
      "inputs": [
        {
          "indexed": false,
          "internalType": "address",
          "name": "player",
          "type": "address"
        },
        {
          "indexed": false,
          "internalType": "uint256",
          "name": "amount",
          "type": "uint256"
        }
      ],
      "name": "Bet",
      "type": "event"
    },
    {
      "anonymous": false,
      "inputs": [
        {
          "indexed": false,
          "internalType": "address",
          "name": "winner",
          "type": "address"
        }
      ],
      "name": "NewCurrentWinner",
      "type": "event"
    },
    {
      "anonymous": false,
      "inputs": [
        {
          "indexed": false,
          "internalType": "uint256",
          "name": "number",
          "type": "uint256"
        }
      ],
      "name": "NewGame",
      "type": "event"
    },
    {
      "anonymous": false,
      "inputs": [
        {
          "indexed": true,
          "internalType": "address",
          "name": "previousOwner",
          "type": "address"
        },
        {
          "indexed": true,
          "internalType": "address",
          "name": "newOwner",
          "type": "address"
        }
      ],
      "name": "OwnershipTransferred",
      "type": "event"
    },
    {
      "anonymous": false,
      "inputs": [
        {
          "indexed": false,
          "internalType": "address",
          "name": "winner",
          "type": "address"
        }
      ],
      "name": "PrizesClaimed",
      "type": "event"
    },
    {
      "anonymous": false,
      "inputs": [
        {
          "indexed": false,
          "internalType": "address",
          "name": "player",
          "type": "address"
        },
        {
          "indexed": false,
          "internalType": "uint256",
          "name": "amount",
          "type": "uint256"
        }
      ],
      "name": "Withdraw",
      "type": "event"
    },
    {
      "inputs": [
        {
          "internalType": "uint256",
          "name": "amount",
          "type": "uint256"
        }
      ],
      "name": "adminWithdraw",
      "outputs": [],
      "stateMutability": "nonpayable",
      "type": "function"
    },
    {
      "inputs": [
        {
          "internalType": "uint256",
          "name": "",
          "type": "uint256"
        }
      ],
      "name": "betTotals",
      "outputs": [
        {
          "internalType": "uint256",
          "name": "",
          "type": "uint256"
        }
      ],
      "stateMutability": "view",
      "type": "function",
      "constant": true
    },
    {
      "inputs": [
        {
          "internalType": "uint256",
          "name": "",
          "type": "uint256"
        },
        {
          "internalType": "address",
          "name": "",
          "type": "address"
        }
      ],
      "name": "bets",
      "outputs": [
        {
          "internalType": "uint256",
          "name": "",
          "type": "uint256"
        }
      ],
      "stateMutability": "view",
      "type": "function",
      "constant": true
    },
    {
      "inputs": [],
      "name": "currentGame",
      "outputs": [
        {
          "internalType": "uint256",
          "name": "",
          "type": "uint256"
        }
      ],
      "stateMutability": "view",
      "type": "function",
      "constant": true
    },
    {
      "inputs": [],
      "name": "currentWinner",
      "outputs": [
        {
          "internalType": "address",
          "name": "",
          "type": "address"
        }
      ],
      "stateMutability": "view",
      "type": "function",
      "constant": true
    },
    {
      "inputs": [],
      "name": "endBets",
      "outputs": [
        {
          "internalType": "uint256",
          "name": "",
          "type": "uint256"
        }
      ],
      "stateMutability": "view",
      "type": "function",
      "constant": true
    },
    {
      "inputs": [],
      "name": "owner",
      "outputs": [
        {
          "internalType": "address",
          "name": "",
          "type": "address"
        }
      ],
      "stateMutability": "view",
      "type": "function",
      "constant": true
    },
    {
      "inputs": [],
      "name": "renounceOwnership",
      "outputs": [],
      "stateMutability": "nonpayable",
      "type": "function"
    },
    {
      "inputs": [],
      "name": "startNext",
      "outputs": [
        {
          "internalType": "uint256",
          "name": "",
          "type": "uint256"
        }
      ],
      "stateMutability": "view",
      "type": "function",
      "constant": true
    },
    {
      "inputs": [
        {
          "internalType": "address",
          "name": "newOwner",
          "type": "address"
        }
      ],
      "name": "transferOwnership",
      "outputs": [],
      "stateMutability": "nonpayable",
      "type": "function"
    },
    {
      "inputs": [],
      "name": "startNextGame",
      "outputs": [],
      "stateMutability": "nonpayable",
      "type": "function"
    },
    {
      "inputs": [],
      "name": "bet",
      "outputs": [],
      "stateMutability": "payable",
      "type": "function",
      "payable": true
    },
    {
      "inputs": [
        {
          "internalType": "uint256",
          "name": "amount",
          "type": "uint256"
        }
      ],
      "name": "withdraw",
      "outputs": [],
      "stateMutability": "nonpayable",
      "type": "function"
    },
    {
      "inputs": [],
      "name": "claim",
      "outputs": [],
      "stateMutability": "nonpayable",
      "type": "function"
    },
    {
      "inputs": [],
      "name": "getCurrentBet",
      "outputs": [
        {
          "internalType": "uint256",
          "name": "",
          "type": "uint256"
        }
      ],
      "stateMutability": "view",
      "type": "function",
      "constant": true
    },
    {
      "inputs": [],
      "name": "getCurrentTotal",
      "outputs": [
        {
          "internalType": "uint256",
          "name": "",
          "type": "uint256"
        }
      ],
      "stateMutability": "view",
      "type": "function",
      "constant": true
    },
    {
      "inputs": [],
      "name": "getTimeLeft",
      "outputs": [
        {
          "internalType": "uint256",
          "name": "",
          "type": "uint256"
        }
      ],
      "stateMutability": "view",
      "type": "function",
      "constant": true
    },
    {
      "inputs": [],
      "name": "getClaimable",
      "outputs": [
        {
          "internalType": "bool",
          "name": "",
          "type": "bool"
        }
      ],
      "stateMutability": "view",
      "type": "function",
      "constant": true
    },
    {
      "inputs": [],
      "name": "getNewGame",
      "outputs": [
        {
          "internalType": "bool",
          "name": "",
          "type": "bool"
        }
      ],
      "stateMutability": "view",
      "type": "function",
      "constant": true
    }
  ],
  "bytecode": "0x60806040523480156200001157600080fd5b50600062000024620001e060201b60201c565b9050806000806101000a81548173ffffffffffffffffffffffffffffffffffffffff021916908373ffffffffffffffffffffffffffffffffffffffff1602179055508073ffffffffffffffffffffffffffffffffffffffff16600073ffffffffffffffffffffffffffffffffffffffff167f8be0079c531659141344cd1fd0a4f28419497f9722a3daafe3b4186f6b6457e060405160405180910390a350620000d2620001e860201b60201c565b600360006101000a81548173ffffffffffffffffffffffffffffffffffffffff021916908373ffffffffffffffffffffffffffffffffffffffff160217905550600160048190555060054262000129919062000211565b600581905550600580546200013f919062000211565b60068190555060006001600060045481526020019081526020016000206000600360009054906101000a900473ffffffffffffffffffffffffffffffffffffffff1673ffffffffffffffffffffffffffffffffffffffff1673ffffffffffffffffffffffffffffffffffffffff16815260200190815260200160002081905550600060026000600454815260200190815260200160002081905550620002a7565b600033905090565b60008060009054906101000a900473ffffffffffffffffffffffffffffffffffffffff16905090565b60006200021e826200026e565b91506200022b836200026e565b9250827fffffffffffffffffffffffffffffffffffffffffffffffffffffffffffffffff0382111562000263576200026262000278565b5b828201905092915050565b6000819050919050565b7f4e487b7100000000000000000000000000000000000000000000000000000000600052601160045260246000fd5b61172c80620002b76000396000f3fe6080604052600436106101145760003560e01c8063a2b946aa116100a0578063d809d24811610064578063d809d24814610338578063d9b7fd7e1461034f578063ee28b7441461037a578063f2fde38b146103a5578063f644b3bb146103ce57610114565b8063a2b946aa14610261578063aabe2fe31461028c578063b7897485146102b7578063c7e284b8146102e2578063d46a8b3a1461030d57610114565b80635ffd5069116100e75780635ffd50691461018e57806360b663bb146101cb578063715018a6146101f65780637c5b4a371461020d5780638da5cb5b1461023657610114565b806311610c251461011957806312614fe4146101235780632e1a7d4d1461014e5780634e71d92d14610177575b600080fd5b61012161040b565b005b34801561012f57600080fd5b5061013861068c565b6040516101459190611454565b60405180910390f35b34801561015a57600080fd5b506101756004803603810190610170919061121f565b6106a9565b005b34801561018357600080fd5b5061018c6108e5565b005b34801561019a57600080fd5b506101b560048036038101906101b0919061121f565b610a71565b6040516101c29190611454565b60405180910390f35b3480156101d757600080fd5b506101e0610a89565b6040516101ed9190611454565b60405180910390f35b34801561020257600080fd5b5061020b610a8f565b005b34801561021957600080fd5b50610234600480360381019061022f919061121f565b610bc9565b005b34801561024257600080fd5b5061024b610c66565b6040516102589190611375565b60405180910390f35b34801561026d57600080fd5b50610276610c8f565b60405161028391906113b9565b60405180910390f35b34801561029857600080fd5b506102a1610c9b565b6040516102ae9190611375565b60405180910390f35b3480156102c357600080fd5b506102cc610cc1565b6040516102d99190611454565b60405180910390f35b3480156102ee57600080fd5b506102f7610d1b565b6040516103049190611454565b60405180910390f35b34801561031957600080fd5b50610322610d3e565b60405161032f9190611454565b60405180910390f35b34801561034457600080fd5b5061034d610d44565b005b34801561035b57600080fd5b50610364610ee3565b6040516103719190611454565b60405180910390f35b34801561038657600080fd5b5061038f610ee9565b60405161039c91906113b9565b60405180910390f35b3480156103b157600080fd5b506103cc60048036038101906103c791906111f6565b610f02565b005b3480156103da57600080fd5b506103f560048036038101906103f09190611248565b6110ab565b6040516104029190611454565b60405180910390f35b60055480421061045257806040517f691e56820000000000000000000000000000000000000000000000000000000081526004016104499190611454565b60405180910390fd5b3460016000600454815260200190815260200160002060003373ffffffffffffffffffffffffffffffffffffffff1673ffffffffffffffffffffffffffffffffffffffff16815260200190815260200160002060008282546104b4919061148b565b925050819055503460026000600454815260200190815260200160002060008282546104e0919061148b565b925050819055506001600060045481526020019081526020016000206000600360009054906101000a900473ffffffffffffffffffffffffffffffffffffffff1673ffffffffffffffffffffffffffffffffffffffff1673ffffffffffffffffffffffffffffffffffffffff1681526020019081526020016000205460016000600454815260200190815260200160002060003373ffffffffffffffffffffffffffffffffffffffff1673ffffffffffffffffffffffffffffffffffffffff1681526020019081526020016000205411156106505733600360006101000a81548173ffffffffffffffffffffffffffffffffffffffff021916908373ffffffffffffffffffffffffffffffffffffffff1602179055507f9064ac49ccadd46c43efa55bcfcbe3b6f56f72412a1f0aed5e3734a872f24394600360009054906101000a900473ffffffffffffffffffffffffffffffffffffffff166040516106479190611375565b60405180910390a15b7fc0ae20ffbb1eca06a840c35912bdb9f8e6e1fad1f028c875be0ddf54d480d71e3334604051610681929190611390565b60405180910390a150565b600060026000600454815260200190815260200160002054905090565b6005548042106106f057806040517f691e56820000000000000000000000000000000000000000000000000000000081526004016106e79190611454565b60405180910390fd5b600360009054906101000a900473ffffffffffffffffffffffffffffffffffffffff1673ffffffffffffffffffffffffffffffffffffffff163373ffffffffffffffffffffffffffffffffffffffff16141561074b57600080fd5b60016000600454815260200190815260200160002060003373ffffffffffffffffffffffffffffffffffffffff1673ffffffffffffffffffffffffffffffffffffffff168152602001908152602001600020548211156107aa57600080fd5b478211156107b757600080fd5b8160016000600454815260200190815260200160002060003373ffffffffffffffffffffffffffffffffffffffff1673ffffffffffffffffffffffffffffffffffffffff168152602001908152602001600020600082825461081991906114e1565b9250508190555081600260006004548152602001908152602001600020600082825461084591906114e1565b925050819055506108a83360016000600454815260200190815260200160002060003373ffffffffffffffffffffffffffffffffffffffff1673ffffffffffffffffffffffffffffffffffffffff168152602001908152602001600020546110d0565b7f884edad9ce6fa2440d8a54cc123490eb96d2768479d49ff9c7366125a942436433836040516108d9929190611390565b60405180910390a15050565b60055480421161092c57806040517f2a35a3240000000000000000000000000000000000000000000000000000000081526004016109239190611454565b60405180910390fd5b60065480421061097357806040517f691e568200000000000000000000000000000000000000000000000000000000815260040161096a9190611454565b60405180910390fd5b600360009054906101000a900473ffffffffffffffffffffffffffffffffffffffff1673ffffffffffffffffffffffffffffffffffffffff163373ffffffffffffffffffffffffffffffffffffffff16146109cd57600080fd5b600060026000600454815260200190815260200160002054905060006002600060045481526020019081526020016000208190555042600681905550610a1333826110d0565b7fdbea70ddd5e7a40e68351cc8cff783fc1b126ab39c41d2dd4195897e9daeab70600360009054906101000a900473ffffffffffffffffffffffffffffffffffffffff16604051610a649190611375565b60405180910390a1505050565b60026020528060005260406000206000915090505481565b60045481565b610a976111c4565b73ffffffffffffffffffffffffffffffffffffffff16610ab5610c66565b73ffffffffffffffffffffffffffffffffffffffff1614610b0b576040517f08c379a0000000000000000000000000000000000000000000000000000000008152600401610b0290611434565b60405180910390fd5b600073ffffffffffffffffffffffffffffffffffffffff1660008054906101000a900473ffffffffffffffffffffffffffffffffffffffff1673ffffffffffffffffffffffffffffffffffffffff167f8be0079c531659141344cd1fd0a4f28419497f9722a3daafe3b4186f6b6457e060405160405180910390a360008060006101000a81548173ffffffffffffffffffffffffffffffffffffffff021916908373ffffffffffffffffffffffffffffffffffffffff160217905550565b610bd16111c4565b73ffffffffffffffffffffffffffffffffffffffff16610bef610c66565b73ffffffffffffffffffffffffffffffffffffffff1614610c45576040517f08c379a0000000000000000000000000000000000000000000000000000000008152600401610c3c90611434565b60405180910390fd5b47811115610c5257600080fd5b610c63610c5d610c66565b826110d0565b50565b60008060009054906101000a900473ffffffffffffffffffffffffffffffffffffffff16905090565b60006006544211905090565b600360009054906101000a900473ffffffffffffffffffffffffffffffffffffffff1681565b600060016000600454815260200190815260200160002060003373ffffffffffffffffffffffffffffffffffffffff1673ffffffffffffffffffffffffffffffffffffffff16815260200190815260200160002054905090565b60004260055411610d2b57600080fd5b42600554610d3991906114e1565b905090565b60065481565b600654804211610d8b57806040517f2a35a324000000000000000000000000000000000000000000000000000000008152600401610d829190611454565b60405180910390fd5b610d93610c66565b600360006101000a81548173ffffffffffffffffffffffffffffffffffffffff021916908373ffffffffffffffffffffffffffffffffffffffff16021790555060046000815480929190610de69061155d565b9190505550600542610df8919061148b565b60058190555060058054610e0c919061148b565b60068190555060006001600060045481526020019081526020016000206000600360009054906101000a900473ffffffffffffffffffffffffffffffffffffffff1673ffffffffffffffffffffffffffffffffffffffff1673ffffffffffffffffffffffffffffffffffffffff168152602001908152602001600020819055506000600260006004548152602001908152602001600020819055507fa0b7f6f22bb4f69adc52dd16ffe2a964ab8b577be274247fa9a1547b03ce3e55600454604051610ed89190611454565b60405180910390a150565b60055481565b600060055442118015610efd575060065442105b905090565b610f0a6111c4565b73ffffffffffffffffffffffffffffffffffffffff16610f28610c66565b73ffffffffffffffffffffffffffffffffffffffff1614610f7e576040517f08c379a0000000000000000000000000000000000000000000000000000000008152600401610f7590611434565b60405180910390fd5b600073ffffffffffffffffffffffffffffffffffffffff168173ffffffffffffffffffffffffffffffffffffffff161415610fee576040517f08c379a0000000000000000000000000000000000000000000000000000000008152600401610fe5906113d4565b60405180910390fd5b8073ffffffffffffffffffffffffffffffffffffffff1660008054906101000a900473ffffffffffffffffffffffffffffffffffffffff1673ffffffffffffffffffffffffffffffffffffffff167f8be0079c531659141344cd1fd0a4f28419497f9722a3daafe3b4186f6b6457e060405160405180910390a3806000806101000a81548173ffffffffffffffffffffffffffffffffffffffff021916908373ffffffffffffffffffffffffffffffffffffffff16021790555050565b6001602052816000526040600020602052806000526040600020600091509150505481565b80471015611113576040517f08c379a000000000000000000000000000000000000000000000000000000000815260040161110a90611414565b60405180910390fd5b60008273ffffffffffffffffffffffffffffffffffffffff168260405161113990611360565b60006040518083038185875af1925050503d8060008114611176576040519150601f19603f3d011682016040523d82523d6000602084013e61117b565b606091505b50509050806111bf576040517f08c379a00000000000000000000000000000000000000000000000000000000081526004016111b6906113f4565b60405180910390fd5b505050565b600033905090565b6000813590506111db816116c8565b92915050565b6000813590506111f0816116df565b92915050565b60006020828403121561120857600080fd5b6000611216848285016111cc565b91505092915050565b60006020828403121561123157600080fd5b600061123f848285016111e1565b91505092915050565b6000806040838503121561125b57600080fd5b6000611269858286016111e1565b925050602061127a858286016111cc565b9150509250929050565b61128d81611515565b82525050565b61129c81611527565b82525050565b60006112af60268361147a565b91506112ba826115d5565b604082019050919050565b60006112d2603a8361147a565b91506112dd82611624565b604082019050919050565b60006112f5601d8361147a565b915061130082611673565b602082019050919050565b600061131860208361147a565b91506113238261169c565b602082019050919050565b600061133b60008361146f565b9150611346826116c5565b600082019050919050565b61135a81611553565b82525050565b600061136b8261132e565b9150819050919050565b600060208201905061138a6000830184611284565b92915050565b60006040820190506113a56000830185611284565b6113b26020830184611351565b9392505050565b60006020820190506113ce6000830184611293565b92915050565b600060208201905081810360008301526113ed816112a2565b9050919050565b6000602082019050818103600083015261140d816112c5565b9050919050565b6000602082019050818103600083015261142d816112e8565b9050919050565b6000602082019050818103600083015261144d8161130b565b9050919050565b60006020820190506114696000830184611351565b92915050565b600081905092915050565b600082825260208201905092915050565b600061149682611553565b91506114a183611553565b9250827fffffffffffffffffffffffffffffffffffffffffffffffffffffffffffffffff038211156114d6576114d56115a6565b5b828201905092915050565b60006114ec82611553565b91506114f783611553565b92508282101561150a576115096115a6565b5b828203905092915050565b600061152082611533565b9050919050565b60008115159050919050565b600073ffffffffffffffffffffffffffffffffffffffff82169050919050565b6000819050919050565b600061156882611553565b91507fffffffffffffffffffffffffffffffffffffffffffffffffffffffffffffffff82141561159b5761159a6115a6565b5b600182019050919050565b7f4e487b7100000000000000000000000000000000000000000000000000000000600052601160045260246000fd5b7f4f776e61626c653a206e6577206f776e657220697320746865207a65726f206160008201527f6464726573730000000000000000000000000000000000000000000000000000602082015250565b7f416464726573733a20756e61626c6520746f2073656e642076616c75652c207260008201527f6563697069656e74206d61792068617665207265766572746564000000000000602082015250565b7f416464726573733a20696e73756666696369656e742062616c616e6365000000600082015250565b7f4f776e61626c653a2063616c6c6572206973206e6f7420746865206f776e6572600082015250565b50565b6116d181611515565b81146116dc57600080fd5b50565b6116e881611553565b81146116f357600080fd5b5056fea26469706673582212207831519d56b83d3012a522efe868b64ccdda668f855e94fb0aebca304be6bab964736f6c63430008040033",
  "immutableReferences": {},
  "source": "// SPDX-License-Identifier: MIT\r\n// Made by Chance Vodnoy - 6/5/2021\r\npragma solidity ^0.8.4;\r\n\r\nimport \"./helpers/Admin.sol\";\r\n\r\n// Single use contract for testing\r\n// No hiding or revealing\r\ncontract HigherLower is Admin {\r\n    // Current bets\r\n    mapping (uint256 => mapping (address => uint)) public bets;\r\n    mapping (uint256 => uint) public betTotals;\r\n    address public currentWinner;\r\n    uint public currentGame;\r\n\r\n    // Timestamp for when to deal with bids\r\n    uint public endBets;\r\n    uint public startNext;\r\n\r\n    // Events\r\n    event Bet(address player, uint amount);\r\n    event Withdraw(address player, uint amount);\r\n    event NewCurrentWinner(address winner);\r\n    event PrizesClaimed(address winner);\r\n    event NewGame(uint number);\r\n\r\n    // Errors\r\n    error TooLate(uint time);\r\n    error TooEarly(uint time);\r\n\r\n    // Modifiers\r\n    modifier onlyBefore(uint _time) {\r\n        if (block.timestamp >= _time) revert TooLate(_time);\r\n        _;\r\n    }\r\n    modifier onlyAfter(uint _time) {\r\n        if (block.timestamp <= _time) revert TooEarly(_time);\r\n        _;\r\n    }\r\n\r\n    constructor() Admin() {\r\n        currentWinner = owner();\r\n\r\n        currentGame = 1;\r\n        // Bet time = 5 seconds\r\n        endBets = block.timestamp + 5;\r\n        // Time to collect prizes = 5 seconds\r\n        startNext = endBets + 5;\r\n\r\n        // Sets the winner's bets to 0\r\n        bets[currentGame][currentWinner] = 0;\r\n        // Sets the current game's bet total to 0\r\n        betTotals[currentGame] = 0;\r\n    }\r\n\r\n    // Starts the next game \r\n    function startNextGame() public onlyAfter(startNext) {\r\n        // Winner starts as owner\r\n        currentWinner = owner();\r\n\r\n        // Starts new game\r\n        currentGame++;\r\n        endBets = block.timestamp + 5;\r\n        startNext = endBets + 5;\r\n\r\n        bets[currentGame][currentWinner] = 0;\r\n        betTotals[currentGame] = 0;\r\n\r\n        emit NewGame(currentGame);\r\n    }\r\n\r\n    // Adds bet to current game\r\n    function bet() public payable onlyBefore(endBets) {\r\n        bets[currentGame][msg.sender] += msg.value;\r\n        betTotals[currentGame] += msg.value;\r\n\r\n        if (bets[currentGame][msg.sender] > bets[currentGame][currentWinner]) {\r\n            currentWinner = msg.sender;\r\n            emit NewCurrentWinner(currentWinner);\r\n        }\r\n        emit Bet(msg.sender, msg.value);\r\n    }\r\n\r\n    // Current betters can withdraw their bets if they're not the current winner\r\n    function withdraw(uint amount) public onlyBefore(endBets) {\r\n        // The current winner cannot withdraw\r\n        require(msg.sender != currentWinner);\r\n        require(amount <= bets[currentGame][msg.sender]);\r\n        require(amount <= address(this).balance);\r\n\r\n        bets[currentGame][msg.sender] -= amount;\r\n        betTotals[currentGame] -= amount;\r\n\r\n        // Send the bets they made in the current game\r\n        Address.sendValue(payable(msg.sender), bets[currentGame][msg.sender]);\r\n        emit Withdraw(msg.sender, amount);\r\n    }\r\n\r\n    // Winner claims all bets made during the game they won in\r\n    function claim() public onlyAfter(endBets) onlyBefore(startNext) {\r\n        require(msg.sender == currentWinner);\r\n        uint total = betTotals[currentGame];\r\n\r\n        // Sets the bet total to 0\r\n        betTotals[currentGame] = 0;\r\n        // Lets new game start immediately after\r\n        startNext = block.timestamp;\r\n        \r\n        // Sends all bets in the current game\r\n        Address.sendValue(payable(msg.sender), total);\r\n        emit PrizesClaimed(currentWinner);\r\n    }\r\n\r\n    // View methods:\r\n\r\n    // Gets the current bet of an address\r\n    function getCurrentBet() public view returns (uint) {\r\n        return bets[currentGame][msg.sender];\r\n    }\r\n\r\n    // Gets the current total bets of the game\r\n    function getCurrentTotal() public view returns (uint) {\r\n        return betTotals[currentGame];\r\n    }\r\n\r\n    // Gets the time left before betting closes\r\n    function getTimeLeft() public view returns (uint) {\r\n        require(endBets > block.timestamp);\r\n        return endBets - block.timestamp;\r\n    }\r\n\r\n    // Gets whether the prize is claimable or not\r\n    function getClaimable() public view returns (bool) {\r\n        return block.timestamp > endBets && block.timestamp < startNext;\r\n    }\r\n\r\n    // Gets whether a new game is possible\r\n    function getNewGame() public view returns (bool) {\r\n        return block.timestamp > startNext;\r\n    }\r\n}",
  "sourcePath": "C:/Users/chanc/Documents/Projects/DAPP/HigherLower/smart_contracts/contracts/HigherLower.sol",
  "compiler": {
    "name": "solc",
    "version": "0.8.4+commit.c7e474f2.Emscripten.clang"
  },
  "schemaVersion": "3.4.1",
  "updatedAt": "2021-06-11T01:44:12.375Z",
  "networkType": "ethereum",
  "devdoc": {
    "kind": "dev",
    "methods": {
      "owner()": {
        "details": "Returns the address of the current owner."
      },
      "renounceOwnership()": {
        "details": "Leaves the contract without owner. It will not be possible to call `onlyOwner` functions anymore. Can only be called by the current owner. NOTE: Renouncing ownership will leave the contract without an owner, thereby removing any functionality that is only available to the owner."
      },
      "transferOwnership(address)": {
        "details": "Transfers ownership of the contract to a new account (`newOwner`). Can only be called by the current owner."
      }
    },
    "version": 1
  },
  "userdoc": {
    "kind": "user",
    "methods": {},
    "version": 1
  }
}