{
  "contractName": "HigherLower",
  "abi": [
    {
      "inputs": [],
      "stateMutability": "nonpayable",
      "type": "constructor"
    },
    {
      "inputs": [
        {
          "internalType": "uint256",
          "name": "time",
          "type": "uint256"
        }
      ],
      "name": "TooEarly",
      "type": "error"
    },
    {
      "inputs": [
        {
          "internalType": "uint256",
          "name": "time",
          "type": "uint256"
        }
      ],
      "name": "TooLate",
      "type": "error"
    },
    {
      "anonymous": false,
      "inputs": [
        {
          "indexed": false,
          "internalType": "address",
          "name": "player",
          "type": "address"
        },
        {
          "indexed": false,
          "internalType": "uint256",
          "name": "amount",
          "type": "uint256"
        }
      ],
      "name": "Bet",
      "type": "event"
    },
    {
      "anonymous": false,
      "inputs": [
        {
          "indexed": false,
          "internalType": "address",
          "name": "winner",
          "type": "address"
        }
      ],
      "name": "NewCurrentWinner",
      "type": "event"
    },
    {
      "anonymous": false,
      "inputs": [
        {
          "indexed": false,
          "internalType": "uint256",
          "name": "number",
          "type": "uint256"
        }
      ],
      "name": "NewGame",
      "type": "event"
    },
    {
      "anonymous": false,
      "inputs": [
        {
          "indexed": true,
          "internalType": "address",
          "name": "previousOwner",
          "type": "address"
        },
        {
          "indexed": true,
          "internalType": "address",
          "name": "newOwner",
          "type": "address"
        }
      ],
      "name": "OwnershipTransferred",
      "type": "event"
    },
    {
      "anonymous": false,
      "inputs": [
        {
          "indexed": false,
          "internalType": "address",
          "name": "winner",
          "type": "address"
        }
      ],
      "name": "PrizesClaimed",
      "type": "event"
    },
    {
      "anonymous": false,
      "inputs": [
        {
          "indexed": false,
          "internalType": "address",
          "name": "player",
          "type": "address"
        },
        {
          "indexed": false,
          "internalType": "uint256",
          "name": "amount",
          "type": "uint256"
        }
      ],
      "name": "Withdraw",
      "type": "event"
    },
    {
      "inputs": [
        {
          "internalType": "uint256",
          "name": "amount",
          "type": "uint256"
        }
      ],
      "name": "adminWithdraw",
      "outputs": [],
      "stateMutability": "nonpayable",
      "type": "function"
    },
    {
      "inputs": [],
      "name": "betLength",
      "outputs": [
        {
          "internalType": "uint256",
          "name": "",
          "type": "uint256"
        }
      ],
      "stateMutability": "view",
      "type": "function",
      "constant": true
    },
    {
      "inputs": [
        {
          "internalType": "uint256",
          "name": "",
          "type": "uint256"
        }
      ],
      "name": "betTotals",
      "outputs": [
        {
          "internalType": "uint256",
          "name": "",
          "type": "uint256"
        }
      ],
      "stateMutability": "view",
      "type": "function",
      "constant": true
    },
    {
      "inputs": [
        {
          "internalType": "uint256",
          "name": "",
          "type": "uint256"
        },
        {
          "internalType": "address",
          "name": "",
          "type": "address"
        }
      ],
      "name": "bets",
      "outputs": [
        {
          "internalType": "uint256",
          "name": "",
          "type": "uint256"
        }
      ],
      "stateMutability": "view",
      "type": "function",
      "constant": true
    },
    {
      "inputs": [],
      "name": "claimLength",
      "outputs": [
        {
          "internalType": "uint256",
          "name": "",
          "type": "uint256"
        }
      ],
      "stateMutability": "view",
      "type": "function",
      "constant": true
    },
    {
      "inputs": [],
      "name": "currentGame",
      "outputs": [
        {
          "internalType": "uint256",
          "name": "",
          "type": "uint256"
        }
      ],
      "stateMutability": "view",
      "type": "function",
      "constant": true
    },
    {
      "inputs": [],
      "name": "currentWinner",
      "outputs": [
        {
          "internalType": "address",
          "name": "",
          "type": "address"
        }
      ],
      "stateMutability": "view",
      "type": "function",
      "constant": true
    },
    {
      "inputs": [],
      "name": "endBets",
      "outputs": [
        {
          "internalType": "uint256",
          "name": "",
          "type": "uint256"
        }
      ],
      "stateMutability": "view",
      "type": "function",
      "constant": true
    },
    {
      "inputs": [],
      "name": "owner",
      "outputs": [
        {
          "internalType": "address",
          "name": "",
          "type": "address"
        }
      ],
      "stateMutability": "view",
      "type": "function",
      "constant": true
    },
    {
      "inputs": [],
      "name": "renounceOwnership",
      "outputs": [],
      "stateMutability": "nonpayable",
      "type": "function"
    },
    {
      "inputs": [],
      "name": "startNext",
      "outputs": [
        {
          "internalType": "uint256",
          "name": "",
          "type": "uint256"
        }
      ],
      "stateMutability": "view",
      "type": "function",
      "constant": true
    },
    {
      "inputs": [
        {
          "internalType": "address",
          "name": "newOwner",
          "type": "address"
        }
      ],
      "name": "transferOwnership",
      "outputs": [],
      "stateMutability": "nonpayable",
      "type": "function"
    },
    {
      "inputs": [],
      "name": "startNextGame",
      "outputs": [],
      "stateMutability": "nonpayable",
      "type": "function"
    },
    {
      "inputs": [],
      "name": "bet",
      "outputs": [],
      "stateMutability": "payable",
      "type": "function",
      "payable": true
    },
    {
      "inputs": [
        {
          "internalType": "uint256",
          "name": "amount",
          "type": "uint256"
        }
      ],
      "name": "withdraw",
      "outputs": [],
      "stateMutability": "nonpayable",
      "type": "function"
    },
    {
      "inputs": [],
      "name": "claim",
      "outputs": [],
      "stateMutability": "nonpayable",
      "type": "function"
    },
    {
      "inputs": [],
      "name": "getCurrentBet",
      "outputs": [
        {
          "internalType": "uint256",
          "name": "",
          "type": "uint256"
        }
      ],
      "stateMutability": "view",
      "type": "function",
      "constant": true
    },
    {
      "inputs": [],
      "name": "getCurrentTotal",
      "outputs": [
        {
          "internalType": "uint256",
          "name": "",
          "type": "uint256"
        }
      ],
      "stateMutability": "view",
      "type": "function",
      "constant": true
    },
    {
      "inputs": [],
      "name": "getTimeLeft",
      "outputs": [
        {
          "internalType": "uint256",
          "name": "",
          "type": "uint256"
        }
      ],
      "stateMutability": "view",
      "type": "function",
      "constant": true
    },
    {
      "inputs": [],
      "name": "getClaimable",
      "outputs": [
        {
          "internalType": "bool",
          "name": "",
          "type": "bool"
        }
      ],
      "stateMutability": "view",
      "type": "function",
      "constant": true
    },
    {
      "inputs": [],
      "name": "getNewGame",
      "outputs": [
        {
          "internalType": "bool",
          "name": "",
          "type": "bool"
        }
      ],
      "stateMutability": "view",
      "type": "function",
      "constant": true
    }
  ],
  "bytecode": "0x6080604052603c600555601e6006553480156200001b57600080fd5b5060006200002e620001ed60201b60201c565b9050806000806101000a81548173ffffffffffffffffffffffffffffffffffffffff021916908373ffffffffffffffffffffffffffffffffffffffff1602179055508073ffffffffffffffffffffffffffffffffffffffff16600073ffffffffffffffffffffffffffffffffffffffff167f8be0079c531659141344cd1fd0a4f28419497f9722a3daafe3b4186f6b6457e060405160405180910390a350620000dc620001f560201b60201c565b600360006101000a81548173ffffffffffffffffffffffffffffffffffffffff021916908373ffffffffffffffffffffffffffffffffffffffff1602179055506001600481905550600554426200013491906200021e565b6007819055506006546007546200014c91906200021e565b60088190555060006001600060045481526020019081526020016000206000600360009054906101000a900473ffffffffffffffffffffffffffffffffffffffff1673ffffffffffffffffffffffffffffffffffffffff1673ffffffffffffffffffffffffffffffffffffffff16815260200190815260200160002081905550600060026000600454815260200190815260200160002081905550620002b4565b600033905090565b60008060009054906101000a900473ffffffffffffffffffffffffffffffffffffffff16905090565b60006200022b826200027b565b915062000238836200027b565b9250827fffffffffffffffffffffffffffffffffffffffffffffffffffffffffffffffff0382111562000270576200026f62000285565b5b828201905092915050565b6000819050919050565b7f4e487b7100000000000000000000000000000000000000000000000000000000600052601160045260246000fd5b6117a780620002c46000396000f3fe60806040526004361061012a5760003560e01c8063a2b946aa116100ab578063d809d2481161006f578063d809d24814610379578063d9b7fd7e14610390578063e04eff4c146103bb578063ee28b744146103e6578063f2fde38b14610411578063f644b3bb1461043a5761012a565b8063a2b946aa146102a2578063aabe2fe3146102cd578063b7897485146102f8578063c7e284b814610323578063d46a8b3a1461034e5761012a565b80635ffd5069116100f25780635ffd5069146101cf57806360b663bb1461020c578063715018a6146102375780637c5b4a371461024e5780638da5cb5b146102775761012a565b80630c2037751461012f57806311610c251461015a57806312614fe4146101645780632e1a7d4d1461018f5780634e71d92d146101b8575b600080fd5b34801561013b57600080fd5b50610144610477565b60405161015191906114cf565b60405180910390f35b61016261047d565b005b34801561017057600080fd5b506101796106fe565b60405161018691906114cf565b60405180910390f35b34801561019b57600080fd5b506101b660048036038101906101b1919061129a565b61071b565b005b3480156101c457600080fd5b506101cd610957565b005b3480156101db57600080fd5b506101f660048036038101906101f1919061129a565b610ae3565b60405161020391906114cf565b60405180910390f35b34801561021857600080fd5b50610221610afb565b60405161022e91906114cf565b60405180910390f35b34801561024357600080fd5b5061024c610b01565b005b34801561025a57600080fd5b506102756004803603810190610270919061129a565b610c3b565b005b34801561028357600080fd5b5061028c610cd8565b60405161029991906113f0565b60405180910390f35b3480156102ae57600080fd5b506102b7610d01565b6040516102c49190611434565b60405180910390f35b3480156102d957600080fd5b506102e2610d0d565b6040516102ef91906113f0565b60405180910390f35b34801561030457600080fd5b5061030d610d33565b60405161031a91906114cf565b60405180910390f35b34801561032f57600080fd5b50610338610d8d565b60405161034591906114cf565b60405180910390f35b34801561035a57600080fd5b50610363610db0565b60405161037091906114cf565b60405180910390f35b34801561038557600080fd5b5061038e610db6565b005b34801561039c57600080fd5b506103a5610f58565b6040516103b291906114cf565b60405180910390f35b3480156103c757600080fd5b506103d0610f5e565b6040516103dd91906114cf565b60405180910390f35b3480156103f257600080fd5b506103fb610f64565b6040516104089190611434565b60405180910390f35b34801561041d57600080fd5b5061043860048036038101906104339190611271565b610f7d565b005b34801561044657600080fd5b50610461600480360381019061045c91906112c3565b611126565b60405161046e91906114cf565b60405180910390f35b60065481565b6007548042106104c457806040517f691e56820000000000000000000000000000000000000000000000000000000081526004016104bb91906114cf565b60405180910390fd5b3460016000600454815260200190815260200160002060003373ffffffffffffffffffffffffffffffffffffffff1673ffffffffffffffffffffffffffffffffffffffff16815260200190815260200160002060008282546105269190611506565b925050819055503460026000600454815260200190815260200160002060008282546105529190611506565b925050819055506001600060045481526020019081526020016000206000600360009054906101000a900473ffffffffffffffffffffffffffffffffffffffff1673ffffffffffffffffffffffffffffffffffffffff1673ffffffffffffffffffffffffffffffffffffffff1681526020019081526020016000205460016000600454815260200190815260200160002060003373ffffffffffffffffffffffffffffffffffffffff1673ffffffffffffffffffffffffffffffffffffffff1681526020019081526020016000205411156106c25733600360006101000a81548173ffffffffffffffffffffffffffffffffffffffff021916908373ffffffffffffffffffffffffffffffffffffffff1602179055507f9064ac49ccadd46c43efa55bcfcbe3b6f56f72412a1f0aed5e3734a872f24394600360009054906101000a900473ffffffffffffffffffffffffffffffffffffffff166040516106b991906113f0565b60405180910390a15b7fc0ae20ffbb1eca06a840c35912bdb9f8e6e1fad1f028c875be0ddf54d480d71e33346040516106f392919061140b565b60405180910390a150565b600060026000600454815260200190815260200160002054905090565b60075480421061076257806040517f691e568200000000000000000000000000000000000000000000000000000000815260040161075991906114cf565b60405180910390fd5b600360009054906101000a900473ffffffffffffffffffffffffffffffffffffffff1673ffffffffffffffffffffffffffffffffffffffff163373ffffffffffffffffffffffffffffffffffffffff1614156107bd57600080fd5b60016000600454815260200190815260200160002060003373ffffffffffffffffffffffffffffffffffffffff1673ffffffffffffffffffffffffffffffffffffffff1681526020019081526020016000205482111561081c57600080fd5b4782111561082957600080fd5b8160016000600454815260200190815260200160002060003373ffffffffffffffffffffffffffffffffffffffff1673ffffffffffffffffffffffffffffffffffffffff168152602001908152602001600020600082825461088b919061155c565b925050819055508160026000600454815260200190815260200160002060008282546108b7919061155c565b9250508190555061091a3360016000600454815260200190815260200160002060003373ffffffffffffffffffffffffffffffffffffffff1673ffffffffffffffffffffffffffffffffffffffff1681526020019081526020016000205461114b565b7f884edad9ce6fa2440d8a54cc123490eb96d2768479d49ff9c7366125a9424364338360405161094b92919061140b565b60405180910390a15050565b60075480421161099e57806040517f2a35a32400000000000000000000000000000000000000000000000000000000815260040161099591906114cf565b60405180910390fd5b6008548042106109e557806040517f691e56820000000000000000000000000000000000000000000000000000000081526004016109dc91906114cf565b60405180910390fd5b600360009054906101000a900473ffffffffffffffffffffffffffffffffffffffff1673ffffffffffffffffffffffffffffffffffffffff163373ffffffffffffffffffffffffffffffffffffffff1614610a3f57600080fd5b600060026000600454815260200190815260200160002054905060006002600060045481526020019081526020016000208190555042600881905550610a85338261114b565b7fdbea70ddd5e7a40e68351cc8cff783fc1b126ab39c41d2dd4195897e9daeab70600360009054906101000a900473ffffffffffffffffffffffffffffffffffffffff16604051610ad691906113f0565b60405180910390a1505050565b60026020528060005260406000206000915090505481565b60045481565b610b0961123f565b73ffffffffffffffffffffffffffffffffffffffff16610b27610cd8565b73ffffffffffffffffffffffffffffffffffffffff1614610b7d576040517f08c379a0000000000000000000000000000000000000000000000000000000008152600401610b74906114af565b60405180910390fd5b600073ffffffffffffffffffffffffffffffffffffffff1660008054906101000a900473ffffffffffffffffffffffffffffffffffffffff1673ffffffffffffffffffffffffffffffffffffffff167f8be0079c531659141344cd1fd0a4f28419497f9722a3daafe3b4186f6b6457e060405160405180910390a360008060006101000a81548173ffffffffffffffffffffffffffffffffffffffff021916908373ffffffffffffffffffffffffffffffffffffffff160217905550565b610c4361123f565b73ffffffffffffffffffffffffffffffffffffffff16610c61610cd8565b73ffffffffffffffffffffffffffffffffffffffff1614610cb7576040517f08c379a0000000000000000000000000000000000000000000000000000000008152600401610cae906114af565b60405180910390fd5b47811115610cc457600080fd5b610cd5610ccf610cd8565b8261114b565b50565b60008060009054906101000a900473ffffffffffffffffffffffffffffffffffffffff16905090565b60006008544211905090565b600360009054906101000a900473ffffffffffffffffffffffffffffffffffffffff1681565b600060016000600454815260200190815260200160002060003373ffffffffffffffffffffffffffffffffffffffff1673ffffffffffffffffffffffffffffffffffffffff16815260200190815260200160002054905090565b60004260075411610d9d57600080fd5b42600754610dab919061155c565b905090565b60085481565b600854804211610dfd57806040517f2a35a324000000000000000000000000000000000000000000000000000000008152600401610df491906114cf565b60405180910390fd5b610e05610cd8565b600360006101000a81548173ffffffffffffffffffffffffffffffffffffffff021916908373ffffffffffffffffffffffffffffffffffffffff16021790555060046000815480929190610e58906115d8565b919050555060055442610e6b9190611506565b600781905550600654600754610e819190611506565b60088190555060006001600060045481526020019081526020016000206000600360009054906101000a900473ffffffffffffffffffffffffffffffffffffffff1673ffffffffffffffffffffffffffffffffffffffff1673ffffffffffffffffffffffffffffffffffffffff168152602001908152602001600020819055506000600260006004548152602001908152602001600020819055507fa0b7f6f22bb4f69adc52dd16ffe2a964ab8b577be274247fa9a1547b03ce3e55600454604051610f4d91906114cf565b60405180910390a150565b60075481565b60055481565b600060075442118015610f78575060085442105b905090565b610f8561123f565b73ffffffffffffffffffffffffffffffffffffffff16610fa3610cd8565b73ffffffffffffffffffffffffffffffffffffffff1614610ff9576040517f08c379a0000000000000000000000000000000000000000000000000000000008152600401610ff0906114af565b60405180910390fd5b600073ffffffffffffffffffffffffffffffffffffffff168173ffffffffffffffffffffffffffffffffffffffff161415611069576040517f08c379a00000000000000000000000000000000000000000000000000000000081526004016110609061144f565b60405180910390fd5b8073ffffffffffffffffffffffffffffffffffffffff1660008054906101000a900473ffffffffffffffffffffffffffffffffffffffff1673ffffffffffffffffffffffffffffffffffffffff167f8be0079c531659141344cd1fd0a4f28419497f9722a3daafe3b4186f6b6457e060405160405180910390a3806000806101000a81548173ffffffffffffffffffffffffffffffffffffffff021916908373ffffffffffffffffffffffffffffffffffffffff16021790555050565b6001602052816000526040600020602052806000526040600020600091509150505481565b8047101561118e576040517f08c379a00000000000000000000000000000000000000000000000000000000081526004016111859061148f565b60405180910390fd5b60008273ffffffffffffffffffffffffffffffffffffffff16826040516111b4906113db565b60006040518083038185875af1925050503d80600081146111f1576040519150601f19603f3d011682016040523d82523d6000602084013e6111f6565b606091505b505090508061123a576040517f08c379a00000000000000000000000000000000000000000000000000000000081526004016112319061146f565b60405180910390fd5b505050565b600033905090565b60008135905061125681611743565b92915050565b60008135905061126b8161175a565b92915050565b60006020828403121561128357600080fd5b600061129184828501611247565b91505092915050565b6000602082840312156112ac57600080fd5b60006112ba8482850161125c565b91505092915050565b600080604083850312156112d657600080fd5b60006112e48582860161125c565b92505060206112f585828601611247565b9150509250929050565b61130881611590565b82525050565b611317816115a2565b82525050565b600061132a6026836114f5565b915061133582611650565b604082019050919050565b600061134d603a836114f5565b91506113588261169f565b604082019050919050565b6000611370601d836114f5565b915061137b826116ee565b602082019050919050565b60006113936020836114f5565b915061139e82611717565b602082019050919050565b60006113b66000836114ea565b91506113c182611740565b600082019050919050565b6113d5816115ce565b82525050565b60006113e6826113a9565b9150819050919050565b600060208201905061140560008301846112ff565b92915050565b600060408201905061142060008301856112ff565b61142d60208301846113cc565b9392505050565b6000602082019050611449600083018461130e565b92915050565b600060208201905081810360008301526114688161131d565b9050919050565b6000602082019050818103600083015261148881611340565b9050919050565b600060208201905081810360008301526114a881611363565b9050919050565b600060208201905081810360008301526114c881611386565b9050919050565b60006020820190506114e460008301846113cc565b92915050565b600081905092915050565b600082825260208201905092915050565b6000611511826115ce565b915061151c836115ce565b9250827fffffffffffffffffffffffffffffffffffffffffffffffffffffffffffffffff0382111561155157611550611621565b5b828201905092915050565b6000611567826115ce565b9150611572836115ce565b92508282101561158557611584611621565b5b828203905092915050565b600061159b826115ae565b9050919050565b60008115159050919050565b600073ffffffffffffffffffffffffffffffffffffffff82169050919050565b6000819050919050565b60006115e3826115ce565b91507fffffffffffffffffffffffffffffffffffffffffffffffffffffffffffffffff82141561161657611615611621565b5b600182019050919050565b7f4e487b7100000000000000000000000000000000000000000000000000000000600052601160045260246000fd5b7f4f776e61626c653a206e6577206f776e657220697320746865207a65726f206160008201527f6464726573730000000000000000000000000000000000000000000000000000602082015250565b7f416464726573733a20756e61626c6520746f2073656e642076616c75652c207260008201527f6563697069656e74206d61792068617665207265766572746564000000000000602082015250565b7f416464726573733a20696e73756666696369656e742062616c616e6365000000600082015250565b7f4f776e61626c653a2063616c6c6572206973206e6f7420746865206f776e6572600082015250565b50565b61174c81611590565b811461175757600080fd5b50565b611763816115ce565b811461176e57600080fd5b5056fea2646970667358221220cc614368520283ca54bba07639e271f16a08293d243e6461077b72feb894b9e864736f6c63430008040033",
  "immutableReferences": {},
  "source": "// SPDX-License-Identifier: MIT\r\n// Made by Chance Vodnoy - 6/5/2021\r\npragma solidity ^0.8.4;\r\n\r\nimport \"./helpers/Admin.sol\";\r\n\r\n// Single use contract for testing\r\n// No hiding or revealing\r\ncontract HigherLower is Admin {\r\n    // Current bets\r\n    mapping (uint256 => mapping (address => uint)) public bets;\r\n    mapping (uint256 => uint) public betTotals;\r\n    address public currentWinner;\r\n    uint public currentGame;\r\n\r\n    // Timestamps for when to deal with bets\r\n    uint public betLength = 60;\r\n    uint public claimLength = 30;\r\n    uint public endBets;\r\n    uint public startNext;\r\n\r\n    // Events\r\n    event Bet(address player, uint amount);\r\n    event Withdraw(address player, uint amount);\r\n    event NewCurrentWinner(address winner);\r\n    event PrizesClaimed(address winner);\r\n    event NewGame(uint number);\r\n\r\n    // Errors\r\n    error TooLate(uint time);\r\n    error TooEarly(uint time);\r\n\r\n    // Modifiers\r\n    modifier onlyBefore(uint _time) {\r\n        if (block.timestamp >= _time) revert TooLate(_time);\r\n        _;\r\n    }\r\n    modifier onlyAfter(uint _time) {\r\n        if (block.timestamp <= _time) revert TooEarly(_time);\r\n        _;\r\n    }\r\n\r\n    constructor() Admin() {\r\n        currentWinner = owner();\r\n\r\n        currentGame = 1;\r\n        // Bet time = betLength seconds\r\n        endBets = block.timestamp + betLength;\r\n        // Time to collect prizes = claimLength seconds\r\n        startNext = endBets + claimLength;\r\n\r\n        // Sets the winner's bets to 0\r\n        bets[currentGame][currentWinner] = 0;\r\n        // Sets the current game's bet total to 0\r\n        betTotals[currentGame] = 0;\r\n    }\r\n\r\n    // Starts the next game \r\n    function startNextGame() public onlyAfter(startNext) {\r\n        // Winner starts as owner\r\n        currentWinner = owner();\r\n\r\n        // Starts new game\r\n        currentGame++;\r\n        endBets = block.timestamp + betLength;\r\n        startNext = endBets + claimLength;\r\n\r\n        bets[currentGame][currentWinner] = 0;\r\n        betTotals[currentGame] = 0;\r\n\r\n        emit NewGame(currentGame);\r\n    }\r\n\r\n    // Adds bet to current game\r\n    function bet() public payable onlyBefore(endBets) {\r\n        bets[currentGame][msg.sender] += msg.value;\r\n        betTotals[currentGame] += msg.value;\r\n\r\n        if (bets[currentGame][msg.sender] > bets[currentGame][currentWinner]) {\r\n            currentWinner = msg.sender;\r\n            emit NewCurrentWinner(currentWinner);\r\n        }\r\n        emit Bet(msg.sender, msg.value);\r\n    }\r\n\r\n    // Current betters can withdraw their bets if they're not the current winner\r\n    function withdraw(uint amount) public onlyBefore(endBets) {\r\n        // The current winner cannot withdraw\r\n        require(msg.sender != currentWinner);\r\n        require(amount <= bets[currentGame][msg.sender]);\r\n        require(amount <= address(this).balance);\r\n\r\n        bets[currentGame][msg.sender] -= amount;\r\n        betTotals[currentGame] -= amount;\r\n\r\n        // Send the bets they made in the current game\r\n        Address.sendValue(payable(msg.sender), bets[currentGame][msg.sender]);\r\n        emit Withdraw(msg.sender, amount);\r\n    }\r\n\r\n    // Winner claims all bets made during the game they won in\r\n    function claim() public onlyAfter(endBets) onlyBefore(startNext) {\r\n        require(msg.sender == currentWinner);\r\n        uint total = betTotals[currentGame];\r\n\r\n        // Sets the bet total to 0\r\n        betTotals[currentGame] = 0;\r\n        // Lets new game start immediately after\r\n        startNext = block.timestamp;\r\n        \r\n        // Sends all bets in the current game\r\n        Address.sendValue(payable(msg.sender), total);\r\n        emit PrizesClaimed(currentWinner);\r\n    }\r\n\r\n    // View methods:\r\n\r\n    // Gets the current bet of an address\r\n    function getCurrentBet() public view returns (uint) {\r\n        return bets[currentGame][msg.sender];\r\n    }\r\n\r\n    // Gets the current total bets of the game\r\n    function getCurrentTotal() public view returns (uint) {\r\n        return betTotals[currentGame];\r\n    }\r\n\r\n    // Gets the time left before betting closes\r\n    function getTimeLeft() public view returns (uint) {\r\n        require(endBets > block.timestamp);\r\n        return endBets - block.timestamp;\r\n    }\r\n\r\n    // Gets whether the prize is claimable or not\r\n    function getClaimable() public view returns (bool) {\r\n        return block.timestamp > endBets && block.timestamp < startNext;\r\n    }\r\n\r\n    // Gets whether a new game is possible\r\n    function getNewGame() public view returns (bool) {\r\n        return block.timestamp > startNext;\r\n    }\r\n}",
  "sourcePath": "C:/Users/chanc/Documents/Projects/DAPP/HigherLower/smart_contracts/contracts/HigherLower.sol",
  "compiler": {
    "name": "solc",
    "version": "0.8.4+commit.c7e474f2.Emscripten.clang"
  },
  "schemaVersion": "3.4.1",
  "updatedAt": "2021-06-13T07:07:02.965Z",
  "networkType": "ethereum",
  "devdoc": {
    "kind": "dev",
    "methods": {
      "owner()": {
        "details": "Returns the address of the current owner."
      },
      "renounceOwnership()": {
        "details": "Leaves the contract without owner. It will not be possible to call `onlyOwner` functions anymore. Can only be called by the current owner. NOTE: Renouncing ownership will leave the contract without an owner, thereby removing any functionality that is only available to the owner."
      },
      "transferOwnership(address)": {
        "details": "Transfers ownership of the contract to a new account (`newOwner`). Can only be called by the current owner."
      }
    },
    "version": 1
  },
  "userdoc": {
    "kind": "user",
    "methods": {},
    "version": 1
  }
}